{
  "_format": "hh-sol-artifact-1",
  "contractName": "StrategyStore",
  "sourceName": "contracts/StrategyStore.sol",
  "abi": [
    {
      "inputs": [
        {
          "internalType": "address",
          "name": "admin",
          "type": "address"
        }
      ],
      "stateMutability": "nonpayable",
      "type": "constructor"
    },
    {
      "inputs": [],
      "name": "AccessControlBadConfirmation",
      "type": "error"
    },
    {
      "inputs": [
        {
          "internalType": "address",
          "name": "account",
          "type": "address"
        },
        {
          "internalType": "bytes32",
          "name": "neededRole",
          "type": "bytes32"
        }
      ],
      "name": "AccessControlUnauthorizedAccount",
      "type": "error"
    },
    {
      "inputs": [
        {
          "internalType": "bytes32",
          "name": "id",
          "type": "bytes32"
        }
      ],
      "name": "StrategyExists",
      "type": "error"
    },
    {
      "inputs": [
        {
          "internalType": "bytes32",
          "name": "id",
          "type": "bytes32"
        }
      ],
      "name": "StrategyNotFound",
      "type": "error"
    },
    {
      "anonymous": false,
      "inputs": [
        {
          "indexed": true,
          "internalType": "bytes32",
          "name": "role",
          "type": "bytes32"
        },
        {
          "indexed": true,
          "internalType": "bytes32",
          "name": "previousAdminRole",
          "type": "bytes32"
        },
        {
          "indexed": true,
          "internalType": "bytes32",
          "name": "newAdminRole",
          "type": "bytes32"
        }
      ],
      "name": "RoleAdminChanged",
      "type": "event"
    },
    {
      "anonymous": false,
      "inputs": [
        {
          "indexed": true,
          "internalType": "bytes32",
          "name": "role",
          "type": "bytes32"
        },
        {
          "indexed": true,
          "internalType": "address",
          "name": "account",
          "type": "address"
        },
        {
          "indexed": true,
          "internalType": "address",
          "name": "sender",
          "type": "address"
        }
      ],
      "name": "RoleGranted",
      "type": "event"
    },
    {
      "anonymous": false,
      "inputs": [
        {
          "indexed": true,
          "internalType": "bytes32",
          "name": "role",
          "type": "bytes32"
        },
        {
          "indexed": true,
          "internalType": "address",
          "name": "account",
          "type": "address"
        },
        {
          "indexed": true,
          "internalType": "address",
          "name": "sender",
          "type": "address"
        }
      ],
      "name": "RoleRevoked",
      "type": "event"
    },
    {
      "anonymous": false,
      "inputs": [
        {
          "indexed": true,
          "internalType": "bytes32",
          "name": "id",
          "type": "bytes32"
        },
        {
          "indexed": false,
          "internalType": "uint256",
          "name": "size",
          "type": "uint256"
        },
        {
          "indexed": true,
          "internalType": "address",
          "name": "caller",
          "type": "address"
        }
      ],
      "name": "StrategyCreated",
      "type": "event"
    },
    {
      "anonymous": false,
      "inputs": [
        {
          "indexed": true,
          "internalType": "bytes32",
          "name": "id",
          "type": "bytes32"
        },
        {
          "indexed": true,
          "internalType": "address",
          "name": "caller",
          "type": "address"
        }
      ],
      "name": "StrategyDeleted",
      "type": "event"
    },
    {
      "anonymous": false,
      "inputs": [
        {
          "indexed": true,
          "internalType": "bytes32",
          "name": "id",
          "type": "bytes32"
        },
        {
          "indexed": false,
          "internalType": "uint256",
          "name": "size",
          "type": "uint256"
        },
        {
          "indexed": true,
          "internalType": "address",
          "name": "caller",
          "type": "address"
        }
      ],
      "name": "StrategyUpdated",
      "type": "event"
    },
    {
      "inputs": [],
      "name": "DEFAULT_ADMIN_ROLE",
      "outputs": [
        {
          "internalType": "bytes32",
          "name": "",
          "type": "bytes32"
        }
      ],
      "stateMutability": "view",
      "type": "function"
    },
    {
      "inputs": [],
      "name": "MANAGER_ROLE",
      "outputs": [
        {
          "internalType": "bytes32",
          "name": "",
          "type": "bytes32"
        }
      ],
      "stateMutability": "view",
      "type": "function"
    },
    {
      "inputs": [
        {
          "internalType": "bytes32",
          "name": "id",
          "type": "bytes32"
        },
        {
          "internalType": "bytes",
          "name": "payload",
          "type": "bytes"
        }
      ],
      "name": "createStrategy",
      "outputs": [],
      "stateMutability": "nonpayable",
      "type": "function"
    },
    {
      "inputs": [
        {
          "internalType": "bytes32",
          "name": "id",
          "type": "bytes32"
        }
      ],
      "name": "deleteStrategy",
      "outputs": [],
      "stateMutability": "nonpayable",
      "type": "function"
    },
    {
      "inputs": [
        {
          "internalType": "bytes32",
          "name": "role",
          "type": "bytes32"
        }
      ],
      "name": "getRoleAdmin",
      "outputs": [
        {
          "internalType": "bytes32",
          "name": "",
          "type": "bytes32"
        }
      ],
      "stateMutability": "view",
      "type": "function"
    },
    {
      "inputs": [
        {
          "internalType": "bytes32",
          "name": "id",
          "type": "bytes32"
        }
      ],
      "name": "getStrategy",
      "outputs": [
        {
          "internalType": "bytes",
          "name": "",
          "type": "bytes"
        }
      ],
      "stateMutability": "view",
      "type": "function"
    },
    {
      "inputs": [
        {
          "internalType": "bytes32",
          "name": "role",
          "type": "bytes32"
        },
        {
          "internalType": "address",
          "name": "account",
          "type": "address"
        }
      ],
      "name": "grantRole",
      "outputs": [],
      "stateMutability": "nonpayable",
      "type": "function"
    },
    {
      "inputs": [
        {
          "internalType": "bytes32",
          "name": "role",
          "type": "bytes32"
        },
        {
          "internalType": "address",
          "name": "account",
          "type": "address"
        }
      ],
      "name": "hasRole",
      "outputs": [
        {
          "internalType": "bool",
          "name": "",
          "type": "bool"
        }
      ],
      "stateMutability": "view",
      "type": "function"
    },
    {
      "inputs": [
        {
          "internalType": "bytes32",
          "name": "role",
          "type": "bytes32"
        },
        {
          "internalType": "address",
          "name": "callerConfirmation",
          "type": "address"
        }
      ],
      "name": "renounceRole",
      "outputs": [],
      "stateMutability": "nonpayable",
      "type": "function"
    },
    {
      "inputs": [
        {
          "internalType": "bytes32",
          "name": "role",
          "type": "bytes32"
        },
        {
          "internalType": "address",
          "name": "account",
          "type": "address"
        }
      ],
      "name": "revokeRole",
      "outputs": [],
      "stateMutability": "nonpayable",
      "type": "function"
    },
    {
      "inputs": [
        {
          "internalType": "bytes4",
          "name": "interfaceId",
          "type": "bytes4"
        }
      ],
      "name": "supportsInterface",
      "outputs": [
        {
          "internalType": "bool",
          "name": "",
          "type": "bool"
        }
      ],
      "stateMutability": "view",
      "type": "function"
    },
    {
      "inputs": [
        {
          "internalType": "bytes32",
          "name": "id",
          "type": "bytes32"
        },
        {
          "internalType": "bytes",
          "name": "payload",
          "type": "bytes"
        }
      ],
      "name": "updateStrategy",
      "outputs": [],
      "stateMutability": "nonpayable",
      "type": "function"
    }
  ],
  "bytecode": "0x608060405234801561001057600080fd5b50604051610b66380380610b6683398101604081905261002f91610118565b61003a60008261006c565b506100657f241ecf16d79d0f8dbfb92cbc07fe17840425976cf0667f022fe9877caa831b088261006c565b5050610148565b6000828152602081815260408083206001600160a01b038516845290915281205460ff1661010e576000838152602081815260408083206001600160a01b03861684529091529020805460ff191660011790556100c63390565b6001600160a01b0316826001600160a01b0316847f2f8788117e7eff1d82e926ec794901d17c78024a50270940304540a733656f0d60405160405180910390a4506001610112565b5060005b92915050565b60006020828403121561012a57600080fd5b81516001600160a01b038116811461014157600080fd5b9392505050565b610a0f806101576000396000f3fe608060405234801561001057600080fd5b50600436106100b45760003560e01c806389ee60281161007157806389ee60281461016d57806391d1485414610180578063a217fddf14610193578063cd41b76a1461019b578063d547741f146101ae578063ec87621c146101c157600080fd5b806301ffc9a7146100b9578063248a9ca3146100e157806324a524581461011257806328c84bbd146101275780632f2ff15d1461014757806336568abe1461015a575b600080fd5b6100cc6100c7366004610709565b6101d6565b60405190151581526020015b60405180910390f35b6101046100ef36600461073a565b60009081526020819052604090206001015490565b6040519081526020016100d8565b61012561012036600461073a565b61020d565b005b61013a61013536600461073a565b6102b0565b6040516100d89190610753565b6101256101553660046107a1565b610373565b6101256101683660046107a1565b61039e565b61012561017b3660046107dd565b6103d6565b6100cc61018e3660046107a1565b610482565b610104600081565b6101256101a93660046107dd565b6104ab565b6101256101bc3660046107a1565b61054f565b6101046000805160206109ba83398151915281565b60006001600160e01b03198216637965db0b60e01b148061020757506301ffc9a760e01b6001600160e01b03198316145b92915050565b6000805160206109ba83398151915261022581610574565b6000828152600160205260409020805461023e9061085b565b9050600003610268576040516317199c9360e21b8152600481018390526024015b60405180910390fd5b600082815260016020526040812061027f916106bb565b604051339083907f8f6c39359f19e1685d7df3a8163ea52e458d2826cf18a40dfb539b65a62a83d790600090a35050565b6000818152600160205260408120805460609291906102ce9061085b565b80601f01602080910402602001604051908101604052809291908181526020018280546102fa9061085b565b80156103475780601f1061031c57610100808354040283529160200191610347565b820191906000526020600020905b81548152906001019060200180831161032a57829003601f168201915b505050505090508051600003610207576040516317199c9360e21b81526004810184905260240161025f565b60008281526020819052604090206001015461038e81610574565b6103988383610581565b50505050565b6001600160a01b03811633146103c75760405163334bd91960e11b815260040160405180910390fd5b6103d18282610613565b505050565b6000805160206109ba8339815191526103ee81610574565b600084815260016020526040902080546104079061085b565b15905061042a57604051631d74872160e21b81526004810185905260240161025f565b60008481526001602052604090206104438385836108f9565b50604051828152339085907f2a9caf06919b256307ce3b631504313a67f6455b6068307ee9663e981904bd24906020015b60405180910390a350505050565b6000918252602082815260408084206001600160a01b0393909316845291905290205460ff1690565b6000805160206109ba8339815191526104c381610574565b600084815260016020526040902080546104dc9061085b565b9050600003610501576040516317199c9360e21b81526004810185905260240161025f565b600084815260016020526040902061051a8385836108f9565b50604051828152339085907fb5873a09c3d14bd9dfdc7dbb456d116b61bfdc10cebff99a468a6eb2e1f2876790602001610474565b60008281526020819052604090206001015461056a81610574565b6103988383610613565b61057e813361067e565b50565b600061058d8383610482565b61060b576000838152602081815260408083206001600160a01b03861684529091529020805460ff191660011790556105c33390565b6001600160a01b0316826001600160a01b0316847f2f8788117e7eff1d82e926ec794901d17c78024a50270940304540a733656f0d60405160405180910390a4506001610207565b506000610207565b600061061f8383610482565b1561060b576000838152602081815260408083206001600160a01b0386168085529252808320805460ff1916905551339286917ff6391f5c32d9c69d2a47ea670b442974b53935d1edc7fd64eb21e047a839171b9190a4506001610207565b6106888282610482565b6106b75760405163e2517d3f60e01b81526001600160a01b03821660048201526024810183905260440161025f565b5050565b5080546106c79061085b565b6000825580601f106106d7575050565b601f01602090049060005260206000209081019061057e91905b8082111561070557600081556001016106f1565b5090565b60006020828403121561071b57600080fd5b81356001600160e01b03198116811461073357600080fd5b9392505050565b60006020828403121561074c57600080fd5b5035919050565b602081526000825180602084015260005b818110156107815760208186018101516040868401015201610764565b506000604082850101526040601f19601f83011684010191505092915050565b600080604083850312156107b457600080fd5b8235915060208301356001600160a01b03811681146107d257600080fd5b809150509250929050565b6000806000604084860312156107f257600080fd5b83359250602084013567ffffffffffffffff81111561081057600080fd5b8401601f8101861361082157600080fd5b803567ffffffffffffffff81111561083857600080fd5b86602082840101111561084a57600080fd5b939660209190910195509293505050565b600181811c9082168061086f57607f821691505b60208210810361088f57634e487b7160e01b600052602260045260246000fd5b50919050565b634e487b7160e01b600052604160045260246000fd5b601f8211156103d157806000526020600020601f840160051c810160208510156108d25750805b601f840160051c820191505b818110156108f257600081556001016108de565b5050505050565b67ffffffffffffffff83111561091157610911610895565b6109258361091f835461085b565b836108ab565b6000601f84116001811461095957600085156109415750838201355b600019600387901b1c1916600186901b1783556108f2565b600083815260209020601f19861690835b8281101561098a578685013582556020948501946001909201910161096a565b50868210156109a75760001960f88860031b161c19848701351681555b505060018560011b018355505050505056fe241ecf16d79d0f8dbfb92cbc07fe17840425976cf0667f022fe9877caa831b08a2646970667358221220cf2fb364b7a86eb6c4ec378e3f5af93711da9419d4f7a95040826d588199122664736f6c634300081c0033",
  "linkReferences": {},
  "deployedLinkReferences": {}
}