{
  "_format": "hh-sol-artifact-1",
  "contractName": "StateVerifier",
  "sourceName": "contracts/StateVerifier.sol",
  "abi": [
    {
      "inputs": [
        {
          "internalType": "bytes32",
          "name": "root",
          "type": "bytes32"
        },
        {
          "internalType": "bytes32[]",
          "name": "proof",
          "type": "bytes32[]"
        },
        {
          "internalType": "bytes32",
          "name": "leaf",
          "type": "bytes32"
        }
      ],
      "name": "verifyState",
      "outputs": [
        {
          "internalType": "bool",
          "name": "",
          "type": "bool"
        }
      ],
      "stateMutability": "pure",
      "type": "function"
    }
  ],
  "bytecode": "0x6080604052348015600f57600080fd5b506101af8061001f6000396000f3fe608060405234801561001057600080fd5b506004361061002b5760003560e01c8063e49f49b514610030575b600080fd5b61004361003e3660046100db565b610057565b604051901515815260200160405180910390f35b600081815b848110156100cf57600086868381811061007857610078610163565b905060200201359050600080828510610092578285610095565b84835b60408051602080820194909452808201929092528051808303820181526060909201905280519101209450506001909201915061005c9050565b50909414949350505050565b600080600080606085870312156100f157600080fd5b84359350602085013567ffffffffffffffff81111561010f57600080fd5b8501601f8101871361012057600080fd5b803567ffffffffffffffff81111561013757600080fd5b8760208260051b840101111561014c57600080fd5b949760209190910196509394604001359392505050565b634e487b7160e01b600052603260045260246000fdfea26469706673582212201576f4e10ae46fc622dfd8e05001120081d46829843bcac25ce562806d2cc85264736f6c634300081c0033",
  "linkReferences": {},
  "deployedLinkReferences": {}
}