{
  "_format": "hh-sol-artifact-1",
  "contractName": "EncryptedPortfolio",
  "sourceName": "contracts/EncryptedPortfolio.sol",
  "abi": [
    {
      "inputs": [
        {
          "internalType": "contract IAgentRegistry",
          "name": "_registry",
          "type": "address"
        }
      ],
      "stateMutability": "nonpayable",
      "type": "constructor"
    },
    {
      "inputs": [
        {
          "internalType": "bytes32",
          "name": "agentID",
          "type": "bytes32"
        }
      ],
      "name": "AgentNotFound",
      "type": "error"
    },
    {
      "inputs": [
        {
          "internalType": "bytes32",
          "name": "id",
          "type": "bytes32"
        },
        {
          "internalType": "address",
          "name": "caller",
          "type": "address"
        }
      ],
      "name": "NotAuthorized",
      "type": "error"
    },
    {
      "inputs": [
        {
          "internalType": "bytes32",
          "name": "id",
          "type": "bytes32"
        }
      ],
      "name": "StateExists",
      "type": "error"
    },
    {
      "inputs": [
        {
          "internalType": "bytes32",
          "name": "id",
          "type": "bytes32"
        }
      ],
      "name": "StateNotFound",
      "type": "error"
    },
    {
      "anonymous": false,
      "inputs": [
        {
          "indexed": true,
          "internalType": "bytes32",
          "name": "id",
          "type": "bytes32"
        },
        {
          "indexed": false,
          "internalType": "uint256",
          "name": "size",
          "type": "uint256"
        },
        {
          "indexed": true,
          "internalType": "address",
          "name": "caller",
          "type": "address"
        }
      ],
      "name": "StateCreated",
      "type": "event"
    },
    {
      "anonymous": false,
      "inputs": [
        {
          "indexed": true,
          "internalType": "bytes32",
          "name": "id",
          "type": "bytes32"
        },
        {
          "indexed": false,
          "internalType": "uint256",
          "name": "size",
          "type": "uint256"
        },
        {
          "indexed": true,
          "internalType": "address",
          "name": "caller",
          "type": "address"
        }
      ],
      "name": "StateUpdated",
      "type": "event"
    },
    {
      "inputs": [
        {
          "internalType": "bytes32",
          "name": "id",
          "type": "bytes32"
        },
        {
          "internalType": "bytes",
          "name": "data",
          "type": "bytes"
        },
        {
          "internalType": "bytes12",
          "name": "iv",
          "type": "bytes12"
        }
      ],
      "name": "createState",
      "outputs": [],
      "stateMutability": "nonpayable",
      "type": "function"
    },
    {
      "inputs": [
        {
          "internalType": "bytes32",
          "name": "id",
          "type": "bytes32"
        }
      ],
      "name": "getState",
      "outputs": [
        {
          "internalType": "bytes",
          "name": "data",
          "type": "bytes"
        },
        {
          "internalType": "bytes12",
          "name": "iv",
          "type": "bytes12"
        },
        {
          "internalType": "bool",
          "name": "exists",
          "type": "bool"
        }
      ],
      "stateMutability": "view",
      "type": "function"
    },
    {
      "inputs": [],
      "name": "registry",
      "outputs": [
        {
          "internalType": "contract IAgentRegistry",
          "name": "",
          "type": "address"
        }
      ],
      "stateMutability": "view",
      "type": "function"
    },
    {
      "inputs": [
        {
          "internalType": "bytes32",
          "name": "id",
          "type": "bytes32"
        },
        {
          "internalType": "bytes",
          "name": "data",
          "type": "bytes"
        },
        {
          "internalType": "bytes12",
          "name": "iv",
          "type": "bytes12"
        }
      ],
      "name": "updateState",
      "outputs": [],
      "stateMutability": "nonpayable",
      "type": "function"
    }
  ],
  "bytecode": "0x60a060405234801561001057600080fd5b50604051610d08380380610d0883398101604081905261002f91610040565b6001600160a01b0316608052610070565b60006020828403121561005257600080fd5b81516001600160a01b038116811461006957600080fd5b9392505050565b608051610c546100b46000396000818160a901528181610212015281816102bd015281816102ec01528181610550015281816105fb015261062a0152610c546000f3fe608060405234801561001057600080fd5b506004361061004c5760003560e01c806309648a9d14610051578063357862fb1461007c578063421d74d6146100915780637b103999146100a4575b600080fd5b61006461005f3660046107a3565b6100e3565b604051610073939291906107e0565b60405180910390f35b61008f61008a36600461082c565b6101ad565b005b61008f61009f36600461082c565b6104f0565b6100cb7f000000000000000000000000000000000000000000000000000000000000000081565b6040516001600160a01b039091168152602001610073565b6000818152602081905260408120600181015481546060939283929091829160a081901b91600160601b90910460ff1690839061011f906108ca565b80601f016020809104026020016040519081016040528092919081815260200182805461014b906108ca565b80156101985780601f1061016d57610100808354040283529160200191610198565b820191906000526020600020905b81548152906001019060200180831161017b57829003601f168201915b50505050509250935093509350509193909250565b600084815260208190526040902060010154600160601b900460ff16156101ef57604051631951139560e01b8152600481018590526024015b60405180910390fd5b6040516305c41dc360e31b81526004810185905260009081906001600160a01b037f00000000000000000000000000000000000000000000000000000000000000001690632e20ee1890602401600060405180830381865afa158015610259573d6000803e3d6000fd5b505050506040513d6000823e601f3d908101601f19168201604052610281919081019061092f565b9250509150806102a757604051634bc81e6d60e01b8152600481018790526024016101e6565b336001600160a01b038316148015906103d457507f00000000000000000000000000000000000000000000000000000000000000006001600160a01b03166391d148547f00000000000000000000000000000000000000000000000000000000000000006001600160a01b031663ec87621c6040518163ffffffff1660e01b8152600401602060405180830381865afa158015610348573d6000803e3d6000fd5b505050506040513d601f19601f8201168201806040525081019061036c9190610a15565b6040516001600160e01b031960e084901b1681526004810191909152336024820152604401602060405180830381865afa1580156103ae573d6000803e3d6000fd5b505050506040513d601f19601f820116820180604052508101906103d29190610a2e565b155b156103fb5760405163a78e4aa560e01b8152600481018790523360248201526044016101e6565b604051806060016040528086868080601f01602080910402602001604051908101604052809392919081815260200183838082843760009201829052509385525050506001600160a01b031986166020808401919091526001604093840152898252819052208151819061046f9082610a9f565b506020820151600190910180546040938401511515600160601b026cffffffffffffffffffffffffff1990911660a09390931c9290921791909117905551339087907f08a32b32b0da06534f7307f1eb83072cf7417bc9e5f7c325378030c40de01e6e906104e09088815260200190565b60405180910390a3505050505050565b60008481526020819052604090206001810154600160601b900460ff1661052d57604051634437347360e01b8152600481018690526024016101e6565b6040516305c41dc360e31b81526004810186905260009081906001600160a01b037f00000000000000000000000000000000000000000000000000000000000000001690632e20ee1890602401600060405180830381865afa158015610597573d6000803e3d6000fd5b505050506040513d6000823e601f3d908101601f191682016040526105bf919081019061092f565b9250509150806105e557604051634bc81e6d60e01b8152600481018890526024016101e6565b336001600160a01b0383161480159061071257507f00000000000000000000000000000000000000000000000000000000000000006001600160a01b03166391d148547f00000000000000000000000000000000000000000000000000000000000000006001600160a01b031663ec87621c6040518163ffffffff1660e01b8152600401602060405180830381865afa158015610686573d6000803e3d6000fd5b505050506040513d601f19601f820116820180604052508101906106aa9190610a15565b6040516001600160e01b031960e084901b1681526004810191909152336024820152604401602060405180830381865afa1580156106ec573d6000803e3d6000fd5b505050506040513d601f19601f820116820180604052508101906107109190610a2e565b155b156107395760405163a78e4aa560e01b8152600481018890523360248201526044016101e6565b82610745868883610b5e565b506001830180546bffffffffffffffffffffffff191660a086901c179055604051858152339088907f967eb130d137e182c1e74265ab8043cbfe0bd167dd061da57415ffca79a9d8059060200160405180910390a350505050505050565b6000602082840312156107b557600080fd5b5035919050565b60005b838110156107d75781810151838201526020016107bf565b50506000910152565b60608152600084518060608401526107ff8160808501602089016107bc565b6001600160a01b03199490941660208301525090151560408201526080601f909201601f19160101919050565b6000806000806060858703121561084257600080fd5b84359350602085013567ffffffffffffffff81111561086057600080fd5b8501601f8101871361087157600080fd5b803567ffffffffffffffff81111561088857600080fd5b87602082840101111561089a57600080fd5b6020919091019350915060408501356001600160a01b0319811681146108bf57600080fd5b939692955090935050565b600181811c908216806108de57607f821691505b6020821081036108fe57634e487b7160e01b600052602260045260246000fd5b50919050565b634e487b7160e01b600052604160045260246000fd5b8051801515811461092a57600080fd5b919050565b60008060006060848603121561094457600080fd5b83516001600160a01b038116811461095b57600080fd5b602085015190935067ffffffffffffffff81111561097857600080fd5b8401601f8101861361098957600080fd5b805167ffffffffffffffff8111156109a3576109a3610904565b604051601f8201601f19908116603f0116810167ffffffffffffffff811182821017156109d2576109d2610904565b6040528181528282016020018810156109ea57600080fd5b6109fb8260208301602086016107bc565b9350610a0c9150506040850161091a565b90509250925092565b600060208284031215610a2757600080fd5b5051919050565b600060208284031215610a4057600080fd5b610a498261091a565b9392505050565b601f821115610a9a57806000526020600020601f840160051c81016020851015610a775750805b601f840160051c820191505b81811015610a975760008155600101610a83565b50505b505050565b815167ffffffffffffffff811115610ab957610ab9610904565b610acd81610ac784546108ca565b84610a50565b6020601f821160018114610b015760008315610ae95750848201515b600019600385901b1c1916600184901b178455610a97565b600084815260208120601f198516915b82811015610b315787850151825560209485019460019092019101610b11565b5084821015610b4f5786840151600019600387901b60f8161c191681555b50505050600190811b01905550565b67ffffffffffffffff831115610b7657610b76610904565b610b8a83610b8483546108ca565b83610a50565b6000601f841160018114610bbe5760008515610ba65750838201355b600019600387901b1c1916600186901b178355610a97565b600083815260209020601f19861690835b82811015610bef5786850135825560209485019460019092019101610bcf565b5086821015610c0c5760001960f88860031b161c19848701351681555b505060018560011b018355505050505056fea264697066735822122046bb9bdccb32176c22ac4b3cd9c12f8a05fd797a8746a6cb42a319558fe36d2264736f6c634300081c0033",
  "linkReferences": {},
  "deployedLinkReferences": {}
}