{
  "_format": "hh-sol-artifact-1",
  "contractName": "AgentRegistry",
  "sourceName": "contracts/AgentRegistry.sol",
  "abi": [
    {
      "inputs": [
        {
          "internalType": "address",
          "name": "admin",
          "type": "address"
        }
      ],
      "stateMutability": "nonpayable",
      "type": "constructor"
    },
    {
      "inputs": [],
      "name": "AccessControlBadConfirmation",
      "type": "error"
    },
    {
      "inputs": [
        {
          "internalType": "address",
          "name": "account",
          "type": "address"
        },
        {
          "internalType": "bytes32",
          "name": "neededRole",
          "type": "bytes32"
        }
      ],
      "name": "AccessControlUnauthorizedAccount",
      "type": "error"
    },
    {
      "inputs": [
        {
          "internalType": "bytes32",
          "name": "agentID",
          "type": "bytes32"
        }
      ],
      "name": "AgentExists",
      "type": "error"
    },
    {
      "inputs": [
        {
          "internalType": "bytes32",
          "name": "agentID",
          "type": "bytes32"
        }
      ],
      "name": "AgentNotFound",
      "type": "error"
    },
    {
      "inputs": [
        {
          "internalType": "bytes32",
          "name": "agentID",
          "type": "bytes32"
        },
        {
          "internalType": "address",
          "name": "caller",
          "type": "address"
        }
      ],
      "name": "NotAuthorized",
      "type": "error"
    },
    {
      "inputs": [],
      "name": "ZeroAddress",
      "type": "error"
    },
    {
      "anonymous": false,
      "inputs": [
        {
          "indexed": true,
          "internalType": "bytes32",
          "name": "agentID",
          "type": "bytes32"
        },
        {
          "indexed": true,
          "internalType": "address",
          "name": "owner",
          "type": "address"
        },
        {
          "indexed": false,
          "internalType": "string",
          "name": "metadataURI",
          "type": "string"
        }
      ],
      "name": "AgentCreated",
      "type": "event"
    },
    {
      "anonymous": false,
      "inputs": [
        {
          "indexed": true,
          "internalType": "bytes32",
          "name": "agentID",
          "type": "bytes32"
        },
        {
          "indexed": true,
          "internalType": "address",
          "name": "oldOwner",
          "type": "address"
        },
        {
          "indexed": true,
          "internalType": "address",
          "name": "newOwner",
          "type": "address"
        }
      ],
      "name": "AgentOwnerTransferred",
      "type": "event"
    },
    {
      "anonymous": false,
      "inputs": [
        {
          "indexed": true,
          "internalType": "bytes32",
          "name": "agentID",
          "type": "bytes32"
        },
        {
          "indexed": false,
          "internalType": "string",
          "name": "metadataURI",
          "type": "string"
        },
        {
          "indexed": true,
          "internalType": "address",
          "name": "caller",
          "type": "address"
        }
      ],
      "name": "AgentUpdated",
      "type": "event"
    },
    {
      "anonymous": false,
      "inputs": [
        {
          "indexed": true,
          "internalType": "bytes32",
          "name": "role",
          "type": "bytes32"
        },
        {
          "indexed": true,
          "internalType": "bytes32",
          "name": "previousAdminRole",
          "type": "bytes32"
        },
        {
          "indexed": true,
          "internalType": "bytes32",
          "name": "newAdminRole",
          "type": "bytes32"
        }
      ],
      "name": "RoleAdminChanged",
      "type": "event"
    },
    {
      "anonymous": false,
      "inputs": [
        {
          "indexed": true,
          "internalType": "bytes32",
          "name": "role",
          "type": "bytes32"
        },
        {
          "indexed": true,
          "internalType": "address",
          "name": "account",
          "type": "address"
        },
        {
          "indexed": true,
          "internalType": "address",
          "name": "sender",
          "type": "address"
        }
      ],
      "name": "RoleGranted",
      "type": "event"
    },
    {
      "anonymous": false,
      "inputs": [
        {
          "indexed": true,
          "internalType": "bytes32",
          "name": "role",
          "type": "bytes32"
        },
        {
          "indexed": true,
          "internalType": "address",
          "name": "account",
          "type": "address"
        },
        {
          "indexed": true,
          "internalType": "address",
          "name": "sender",
          "type": "address"
        }
      ],
      "name": "RoleRevoked",
      "type": "event"
    },
    {
      "inputs": [],
      "name": "DEFAULT_ADMIN_ROLE",
      "outputs": [
        {
          "internalType": "bytes32",
          "name": "",
          "type": "bytes32"
        }
      ],
      "stateMutability": "view",
      "type": "function"
    },
    {
      "inputs": [],
      "name": "MANAGER_ROLE",
      "outputs": [
        {
          "internalType": "bytes32",
          "name": "",
          "type": "bytes32"
        }
      ],
      "stateMutability": "view",
      "type": "function"
    },
    {
      "inputs": [
        {
          "internalType": "bytes32",
          "name": "agentID",
          "type": "bytes32"
        }
      ],
      "name": "agents",
      "outputs": [
        {
          "internalType": "address",
          "name": "owner",
          "type": "address"
        },
        {
          "internalType": "string",
          "name": "metadataURI",
          "type": "string"
        },
        {
          "internalType": "bool",
          "name": "exists",
          "type": "bool"
        }
      ],
      "stateMutability": "view",
      "type": "function"
    },
    {
      "inputs": [
        {
          "internalType": "bytes32",
          "name": "agentID",
          "type": "bytes32"
        },
        {
          "internalType": "address",
          "name": "owner",
          "type": "address"
        },
        {
          "internalType": "string",
          "name": "uri",
          "type": "string"
        }
      ],
      "name": "createAgent",
      "outputs": [],
      "stateMutability": "nonpayable",
      "type": "function"
    },
    {
      "inputs": [
        {
          "internalType": "bytes32",
          "name": "role",
          "type": "bytes32"
        }
      ],
      "name": "getRoleAdmin",
      "outputs": [
        {
          "internalType": "bytes32",
          "name": "",
          "type": "bytes32"
        }
      ],
      "stateMutability": "view",
      "type": "function"
    },
    {
      "inputs": [
        {
          "internalType": "bytes32",
          "name": "role",
          "type": "bytes32"
        },
        {
          "internalType": "address",
          "name": "account",
          "type": "address"
        }
      ],
      "name": "grantRole",
      "outputs": [],
      "stateMutability": "nonpayable",
      "type": "function"
    },
    {
      "inputs": [
        {
          "internalType": "bytes32",
          "name": "role",
          "type": "bytes32"
        },
        {
          "internalType": "address",
          "name": "account",
          "type": "address"
        }
      ],
      "name": "hasRole",
      "outputs": [
        {
          "internalType": "bool",
          "name": "",
          "type": "bool"
        }
      ],
      "stateMutability": "view",
      "type": "function"
    },
    {
      "inputs": [
        {
          "internalType": "bytes32",
          "name": "role",
          "type": "bytes32"
        },
        {
          "internalType": "address",
          "name": "callerConfirmation",
          "type": "address"
        }
      ],
      "name": "renounceRole",
      "outputs": [],
      "stateMutability": "nonpayable",
      "type": "function"
    },
    {
      "inputs": [
        {
          "internalType": "bytes32",
          "name": "role",
          "type": "bytes32"
        },
        {
          "internalType": "address",
          "name": "account",
          "type": "address"
        }
      ],
      "name": "revokeRole",
      "outputs": [],
      "stateMutability": "nonpayable",
      "type": "function"
    },
    {
      "inputs": [
        {
          "internalType": "bytes4",
          "name": "interfaceId",
          "type": "bytes4"
        }
      ],
      "name": "supportsInterface",
      "outputs": [
        {
          "internalType": "bool",
          "name": "",
          "type": "bool"
        }
      ],
      "stateMutability": "view",
      "type": "function"
    },
    {
      "inputs": [
        {
          "internalType": "bytes32",
          "name": "agentID",
          "type": "bytes32"
        },
        {
          "internalType": "address",
          "name": "newOwner",
          "type": "address"
        }
      ],
      "name": "transferAgentOwner",
      "outputs": [],
      "stateMutability": "nonpayable",
      "type": "function"
    },
    {
      "inputs": [
        {
          "internalType": "bytes32",
          "name": "agentID",
          "type": "bytes32"
        },
        {
          "internalType": "string",
          "name": "uri",
          "type": "string"
        }
      ],
      "name": "updateAgent",
      "outputs": [],
      "stateMutability": "nonpayable",
      "type": "function"
    }
  ],
  "bytecode": "0x608060405234801561001057600080fd5b50604051610e3d380380610e3d83398101604081905261002f9161013f565b6001600160a01b0381166100565760405163d92e233d60e01b815260040160405180910390fd5b610061600082610093565b5061008c7f241ecf16d79d0f8dbfb92cbc07fe17840425976cf0667f022fe9877caa831b0882610093565b505061016f565b6000828152602081815260408083206001600160a01b038516845290915281205460ff16610135576000838152602081815260408083206001600160a01b03861684529091529020805460ff191660011790556100ed3390565b6001600160a01b0316826001600160a01b0316847f2f8788117e7eff1d82e926ec794901d17c78024a50270940304540a733656f0d60405160405180910390a4506001610139565b5060005b92915050565b60006020828403121561015157600080fd5b81516001600160a01b038116811461016857600080fd5b9392505050565b610cbf8061017e6000396000f3fe608060405234801561001057600080fd5b50600436106100b45760003560e01c806391d148541161007157806391d148541461016f578063a217fddf14610182578063d547741f1461018a578063e220e0861461019d578063ec87621c146101b0578063f8e66c6e146101c557600080fd5b806301ffc9a7146100b9578063248a9ca3146100e15780632e20ee18146101125780632f2ff15d1461013457806336568abe14610149578063902831781461015c575b600080fd5b6100cc6100c7366004610836565b6101d8565b60405190151581526020015b60405180910390f35b6101046100ef366004610867565b60009081526020819052604090206001015490565b6040519081526020016100d8565b610125610120366004610867565b61020f565b6040516100d893929190610880565b610147610142366004610902565b6102db565b005b610147610157366004610902565b610306565b61014761016a366004610902565b61033e565b6100cc61017d366004610902565b610449565b610104600081565b610147610198366004610902565b610472565b6101476101ab366004610977565b610497565b610104600080516020610c6a83398151915281565b6101476101d33660046109d1565b610609565b60006001600160e01b03198216637965db0b60e01b148061020957506301ffc9a760e01b6001600160e01b03198316145b92915050565b600081815260016020819052604082208054600282015492820180546060948694936001600160a01b0316929160ff90911690829061024d90610a1d565b80601f016020809104026020016040519081016040528092919081815260200182805461027990610a1d565b80156102c65780601f1061029b576101008083540402835291602001916102c6565b820191906000526020600020905b8154815290600101906020018083116102a957829003601f168201915b50505050509150935093509350509193909250565b6000828152602081905260409020600101546102f6816106ef565b61030083836106fc565b50505050565b6001600160a01b038116331461032f5760405163334bd91960e11b815260040160405180910390fd5b610339828261078e565b505050565b6001600160a01b0381166103655760405163d92e233d60e01b815260040160405180910390fd5b6000828152600160205260409020600281015460ff166103a057604051634bc81e6d60e01b8152600481018490526024015b60405180910390fd5b80546001600160a01b031633148015906103cf57506103cd600080516020610c6a83398151915233610449565b155b156103f65760405163a78e4aa560e01b815260048101849052336024820152604401610397565b80546001600160a01b031981166001600160a01b038481169182178455604051921691829086907f4be02ce3631e0f82c428c16fc33e710ce5877e51e7a0f1ce4a20091dbd448d4a90600090a450505050565b6000918252602082815260408084206001600160a01b0393909316845291905290205460ff1690565b60008281526020819052604090206001015461048d816106ef565b610300838361078e565b600080516020610c6a8339815191526104af816106ef565b6001600160a01b0384166104d65760405163d92e233d60e01b815260040160405180910390fd5b60008581526001602052604090206002015460ff161561050c5760405163045236f760e21b815260048101869052602401610397565b6040518060600160405280856001600160a01b0316815260200184848080601f01602080910402602001604051908101604052809392919081815260200183838082843760009201829052509385525050600160209384018190528983528084526040909220845181546001600160a01b0319166001600160a01b0390911617815592840151918301916105a1915082610abb565b50604091820151600291909101805460ff1916911515919091179055516001600160a01b0385169086907f1443f14f42850f74ea2c13a3c01b271807b7797276b8bf9959f9fd054003133e906105fa9087908790610b7a565b60405180910390a35050505050565b6000838152600160205260409020600281015460ff1661063f57604051634bc81e6d60e01b815260048101859052602401610397565b80546001600160a01b0316331480159061066e575061066c600080516020610c6a83398151915233610449565b155b156106955760405163a78e4aa560e01b815260048101859052336024820152604401610397565b600181016106a4838583610ba9565b50336001600160a01b0316847f448a3de705b0fee8f45ef9e259eaba0b29378a32f192556d85b7daa748d25dc985856040516106e1929190610b7a565b60405180910390a350505050565b6106f981336107f9565b50565b60006107088383610449565b610786576000838152602081815260408083206001600160a01b03861684529091529020805460ff1916600117905561073e3390565b6001600160a01b0316826001600160a01b0316847f2f8788117e7eff1d82e926ec794901d17c78024a50270940304540a733656f0d60405160405180910390a4506001610209565b506000610209565b600061079a8383610449565b15610786576000838152602081815260408083206001600160a01b0386168085529252808320805460ff1916905551339286917ff6391f5c32d9c69d2a47ea670b442974b53935d1edc7fd64eb21e047a839171b9190a4506001610209565b6108038282610449565b6108325760405163e2517d3f60e01b81526001600160a01b038216600482015260248101839052604401610397565b5050565b60006020828403121561084857600080fd5b81356001600160e01b03198116811461086057600080fd5b9392505050565b60006020828403121561087957600080fd5b5035919050565b60018060a01b0384168152606060208201526000835180606084015260005b818110156108bc576020818701810151608086840101520161089f565b506000608082850101526080601f19601f8301168401019150508215156040830152949350505050565b80356001600160a01b03811681146108fd57600080fd5b919050565b6000806040838503121561091557600080fd5b82359150610925602084016108e6565b90509250929050565b60008083601f84011261094057600080fd5b50813567ffffffffffffffff81111561095857600080fd5b60208301915083602082850101111561097057600080fd5b9250929050565b6000806000806060858703121561098d57600080fd5b8435935061099d602086016108e6565b9250604085013567ffffffffffffffff8111156109b957600080fd5b6109c58782880161092e565b95989497509550505050565b6000806000604084860312156109e657600080fd5b83359250602084013567ffffffffffffffff811115610a0457600080fd5b610a108682870161092e565b9497909650939450505050565b600181811c90821680610a3157607f821691505b602082108103610a5157634e487b7160e01b600052602260045260246000fd5b50919050565b634e487b7160e01b600052604160045260246000fd5b601f82111561033957806000526020600020601f840160051c81016020851015610a945750805b601f840160051c820191505b81811015610ab45760008155600101610aa0565b5050505050565b815167ffffffffffffffff811115610ad557610ad5610a57565b610ae981610ae38454610a1d565b84610a6d565b6020601f821160018114610b1d5760008315610b055750848201515b600019600385901b1c1916600184901b178455610ab4565b600084815260208120601f198516915b82811015610b4d5787850151825560209485019460019092019101610b2d565b5084821015610b6b5786840151600019600387901b60f8161c191681555b50505050600190811b01905550565b60208152816020820152818360408301376000818301604090810191909152601f909201601f19160101919050565b67ffffffffffffffff831115610bc157610bc1610a57565b610bd583610bcf8354610a1d565b83610a6d565b6000601f841160018114610c095760008515610bf15750838201355b600019600387901b1c1916600186901b178355610ab4565b600083815260209020601f19861690835b82811015610c3a5786850135825560209485019460019092019101610c1a565b5086821015610c575760001960f88860031b161c19848701351681555b505060018560011b018355505050505056fe241ecf16d79d0f8dbfb92cbc07fe17840425976cf0667f022fe9877caa831b08a26469706673582212202672d5e5eae1f21b40d80108925e9819a793225314ac006b41dca0b5ed5c50ef64736f6c634300081c0033",
  "linkReferences": {},
  "deployedLinkReferences": {}
}